{"abi":[{"type":"constructor","inputs":[],"stateMutability":"nonpayable"},{"type":"function","name":"allowance","inputs":[{"name":"","type":"address","internalType":"address"},{"name":"","type":"address","internalType":"address"}],"outputs":[{"name":"","type":"uint256","internalType":"uint256"}],"stateMutability":"view"},{"type":"function","name":"approve","inputs":[{"name":"spender","type":"address","internalType":"address"},{"name":"value","type":"uint256","internalType":"uint256"}],"outputs":[{"name":"","type":"bool","internalType":"bool"}],"stateMutability":"nonpayable"},{"type":"function","name":"balanceOf","inputs":[{"name":"","type":"address","internalType":"address"}],"outputs":[{"name":"","type":"uint256","internalType":"uint256"}],"stateMutability":"view"},{"type":"function","name":"burn","inputs":[{"name":"value","type":"uint256","internalType":"uint256"}],"outputs":[{"name":"","type":"bool","internalType":"bool"}],"stateMutability":"nonpayable"},{"type":"function","name":"decimals","inputs":[],"outputs":[{"name":"","type":"uint8","internalType":"uint8"}],"stateMutability":"view"},{"type":"function","name":"mint","inputs":[{"name":"to","type":"address","internalType":"address"},{"name":"value","type":"uint256","internalType":"uint256"}],"outputs":[{"name":"","type":"bool","internalType":"bool"}],"stateMutability":"nonpayable"},{"type":"function","name":"name","inputs":[],"outputs":[{"name":"","type":"string","internalType":"string"}],"stateMutability":"view"},{"type":"function","name":"owner","inputs":[],"outputs":[{"name":"","type":"address","internalType":"address"}],"stateMutability":"view"},{"type":"function","name":"symbol","inputs":[],"outputs":[{"name":"","type":"string","internalType":"string"}],"stateMutability":"view"},{"type":"function","name":"totalSupply","inputs":[],"outputs":[{"name":"","type":"uint256","internalType":"uint256"}],"stateMutability":"view"},{"type":"function","name":"transfer","inputs":[{"name":"to","type":"address","internalType":"address"},{"name":"value","type":"uint256","internalType":"uint256"}],"outputs":[{"name":"","type":"bool","internalType":"bool"}],"stateMutability":"nonpayable"},{"type":"function","name":"transferFrom","inputs":[{"name":"from","type":"address","internalType":"address"},{"name":"to","type":"address","internalType":"address"},{"name":"value","type":"uint256","internalType":"uint256"}],"outputs":[{"name":"","type":"bool","internalType":"bool"}],"stateMutability":"nonpayable"},{"type":"event","name":"Approval","inputs":[{"name":"owner","type":"address","indexed":true,"internalType":"address"},{"name":"spender","type":"address","indexed":true,"internalType":"address"},{"name":"value","type":"uint256","indexed":false,"internalType":"uint256"}],"anonymous":false},{"type":"event","name":"Burn","inputs":[{"name":"from","type":"address","indexed":true,"internalType":"address"},{"name":"value","type":"uint256","indexed":false,"internalType":"uint256"}],"anonymous":false},{"type":"event","name":"Mint","inputs":[{"name":"to","type":"address","indexed":true,"internalType":"address"},{"name":"value","type":"uint256","indexed":false,"internalType":"uint256"}],"anonymous":false},{"type":"event","name":"Transfer","inputs":[{"name":"from","type":"address","indexed":true,"internalType":"address"},{"name":"to","type":"address","indexed":true,"internalType":"address"},{"name":"value","type":"uint256","indexed":false,"internalType":"uint256"}],"anonymous":false}],"bytecode":{"object":"0x60806040526040518060400160405280600881526020017f554e4954452056310000000000000000000000000000000000000000000000008152505f908162000049919062000363565b506040518060400160405280600581526020017f554e4954450000000000000000000000000000000000000000000000000000008152506001908162000090919062000363565b50601260025f6101000a81548160ff021916908360ff160217905550348015620000b8575f80fd5b503360065f6101000a81548173ffffffffffffffffffffffffffffffffffffffff021916908373ffffffffffffffffffffffffffffffffffffffff16021790555062000447565b5f81519050919050565b7f4e487b71000000000000000000000000000000000000000000000000000000005f52604160045260245ffd5b7f4e487b71000000000000000000000000000000000000000000000000000000005f52602260045260245ffd5b5f60028204905060018216806200017b57607f821691505b60208210810362000191576200019062000136565b5b50919050565b5f819050815f5260205f209050919050565b5f6020601f8301049050919050565b5f82821b905092915050565b5f60088302620001f57fffffffffffffffffffffffffffffffffffffffffffffffffffffffffffffffff82620001b8565b620002018683620001b8565b95508019841693508086168417925050509392505050565b5f819050919050565b5f819050919050565b5f6200024b620002456200023f8462000219565b62000222565b62000219565b9050919050565b5f819050919050565b62000266836200022b565b6200027e620002758262000252565b848454620001c4565b825550505050565b5f90565b6200029462000286565b620002a18184846200025b565b505050565b5b81811015620002c857620002bc5f826200028a565b600181019050620002a7565b5050565b601f8211156200031757620002e18162000197565b620002ec84620001a9565b81016020851015620002fc578190505b620003146200030b85620001a9565b830182620002a6565b50505b505050565b5f82821c905092915050565b5f620003395f19846008026200031c565b1980831691505092915050565b5f62000353838362000328565b9150826002028217905092915050565b6200036e82620000ff565b67ffffffffffffffff8111156200038a576200038962000109565b5b62000396825462000163565b620003a3828285620002cc565b5f60209050601f831160018114620003d9575f8415620003c4578287015190505b620003d0858262000346565b8655506200043f565b601f198416620003e98662000197565b5f5b828110156200041257848901518255600182019150602085019450602081019050620003eb565b868310156200043257848901516200042e601f89168262000328565b8355505b6001600288020188555050505b505050505050565b61125a80620004555f395ff3fe608060405234801561000f575f80fd5b50600436106100b2575f3560e01c806342966c681161006f57806342966c68146101a057806370a08231146101d05780638da5cb5b1461020057806395d89b411461021e578063a9059cbb1461023c578063dd62ed3e1461026c576100b2565b806306fdde03146100b6578063095ea7b3146100d457806318160ddd1461010457806323b872dd14610122578063313ce5671461015257806340c10f1914610170575b5f80fd5b6100be61029c565b6040516100cb9190610d72565b60405180910390f35b6100ee60048036038101906100e99190610e23565b610327565b6040516100fb9190610e7b565b60405180910390f35b61010c610414565b6040516101199190610ea3565b60405180910390f35b61013c60048036038101906101379190610ebc565b61041a565b6040516101499190610e7b565b60405180910390f35b61015a6106fa565b6040516101679190610f27565b60405180910390f35b61018a60048036038101906101859190610e23565b61070c565b6040516101979190610e7b565b60405180910390f35b6101ba60048036038101906101b59190610f40565b6108c4565b6040516101c79190610e7b565b60405180910390f35b6101ea60048036038101906101e59190610f6b565b610a6c565b6040516101f79190610ea3565b60405180910390f35b610208610a81565b6040516102159190610fa5565b60405180910390f35b610226610aa6565b6040516102339190610d72565b60405180910390f35b61025660048036038101906102519190610e23565b610b32565b6040516102639190610e7b565b60405180910390f35b61028660048036038101906102819190610fbe565b610cc8565b6040516102939190610ea3565b60405180910390f35b5f80546102a890611029565b80601f01602080910402602001604051908101604052809291908181526020018280546102d490611029565b801561031f5780601f106102f65761010080835404028352916020019161031f565b820191905f5260205f20905b81548152906001019060200180831161030257829003601f168201915b505050505081565b5f8160055f3373ffffffffffffffffffffffffffffffffffffffff1673ffffffffffffffffffffffffffffffffffffffff1681526020019081526020015f205f8573ffffffffffffffffffffffffffffffffffffffff1673ffffffffffffffffffffffffffffffffffffffff1681526020019081526020015f20819055508273ffffffffffffffffffffffffffffffffffffffff163373ffffffffffffffffffffffffffffffffffffffff167f8c5be1e5ebec7d5bd14f71427d1e84f3dd0314c0f7b2291e5b200ac8c7c3b925846040516104029190610ea3565b60405180910390a36001905092915050565b60035481565b5f8160045f8673ffffffffffffffffffffffffffffffffffffffff1673ffffffffffffffffffffffffffffffffffffffff1681526020019081526020015f2054101561049b576040517f08c379a0000000000000000000000000000000000000000000000000000000008152600401610492906110a3565b60405180910390fd5b8160055f8673ffffffffffffffffffffffffffffffffffffffff1673ffffffffffffffffffffffffffffffffffffffff1681526020019081526020015f205f3373ffffffffffffffffffffffffffffffffffffffff1673ffffffffffffffffffffffffffffffffffffffff1681526020019081526020015f20541015610556576040517f08c379a000000000000000000000000000000000000000000000000000000000815260040161054d9061110b565b60405180910390fd5b8160055f8673ffffffffffffffffffffffffffffffffffffffff1673ffffffffffffffffffffffffffffffffffffffff1681526020019081526020015f205f3373ffffffffffffffffffffffffffffffffffffffff1673ffffffffffffffffffffffffffffffffffffffff1681526020019081526020015f205f8282546105dd9190611156565b925050819055508160045f8673ffffffffffffffffffffffffffffffffffffffff1673ffffffffffffffffffffffffffffffffffffffff1681526020019081526020015f205f8282546106309190611156565b925050819055508160045f8573ffffffffffffffffffffffffffffffffffffffff1673ffffffffffffffffffffffffffffffffffffffff1681526020019081526020015f205f8282546106839190611189565b925050819055508273ffffffffffffffffffffffffffffffffffffffff168473ffffffffffffffffffffffffffffffffffffffff167fddf252ad1be2c89b69c2b068fc378daa952ba7f163c4a11628f55a4df523b3ef846040516106e79190610ea3565b60405180910390a3600190509392505050565b60025f9054906101000a900460ff1681565b5f60065f9054906101000a900473ffffffffffffffffffffffffffffffffffffffff1673ffffffffffffffffffffffffffffffffffffffff163373ffffffffffffffffffffffffffffffffffffffff161461079c576040517f08c379a000000000000000000000000000000000000000000000000000000000815260040161079390611206565b60405180910390fd5b8160035f8282546107ad9190611189565b925050819055508160045f8573ffffffffffffffffffffffffffffffffffffffff1673ffffffffffffffffffffffffffffffffffffffff1681526020019081526020015f205f8282546108009190611189565b925050819055508273ffffffffffffffffffffffffffffffffffffffff167f0f6798a560793a54c3bcfe86a93cde1e73087d944c0ea20544137d41213968858360405161084d9190610ea3565b60405180910390a28273ffffffffffffffffffffffffffffffffffffffff165f73ffffffffffffffffffffffffffffffffffffffff167fddf252ad1be2c89b69c2b068fc378daa952ba7f163c4a11628f55a4df523b3ef846040516108b29190610ea3565b60405180910390a36001905092915050565b5f8160045f3373ffffffffffffffffffffffffffffffffffffffff1673ffffffffffffffffffffffffffffffffffffffff1681526020019081526020015f20541015610945576040517f08c379a000000000000000000000000000000000000000000000000000000000815260040161093c906110a3565b60405180910390fd5b8160035f8282546109569190611156565b925050819055508160045f3373ffffffffffffffffffffffffffffffffffffffff1673ffffffffffffffffffffffffffffffffffffffff1681526020019081526020015f205f8282546109a99190611156565b925050819055503373ffffffffffffffffffffffffffffffffffffffff167fcc16f5dbb4873280815c1ee09dbd06736cffcc184412cf7a71a0fdb75d397ca5836040516109f69190610ea3565b60405180910390a25f73ffffffffffffffffffffffffffffffffffffffff163373ffffffffffffffffffffffffffffffffffffffff167fddf252ad1be2c89b69c2b068fc378daa952ba7f163c4a11628f55a4df523b3ef84604051610a5b9190610ea3565b60405180910390a360019050919050565b6004602052805f5260405f205f915090505481565b60065f9054906101000a900473ffffffffffffffffffffffffffffffffffffffff1681565b60018054610ab390611029565b80601f0160208091040260200160405190810160405280929190818152602001828054610adf90611029565b8015610b2a5780601f10610b0157610100808354040283529160200191610b2a565b820191905f5260205f20905b815481529060010190602001808311610b0d57829003601f168201915b505050505081565b5f8160045f3373ffffffffffffffffffffffffffffffffffffffff1673ffffffffffffffffffffffffffffffffffffffff1681526020019081526020015f20541015610bb3576040517f08c379a0000000000000000000000000000000000000000000000000000000008152600401610baa906110a3565b60405180910390fd5b8160045f3373ffffffffffffffffffffffffffffffffffffffff1673ffffffffffffffffffffffffffffffffffffffff1681526020019081526020015f205f828254610bff9190611156565b925050819055508160045f8573ffffffffffffffffffffffffffffffffffffffff1673ffffffffffffffffffffffffffffffffffffffff1681526020019081526020015f205f828254610c529190611189565b925050819055508273ffffffffffffffffffffffffffffffffffffffff163373ffffffffffffffffffffffffffffffffffffffff167fddf252ad1be2c89b69c2b068fc378daa952ba7f163c4a11628f55a4df523b3ef84604051610cb69190610ea3565b60405180910390a36001905092915050565b6005602052815f5260405f20602052805f5260405f205f91509150505481565b5f81519050919050565b5f82825260208201905092915050565b5f5b83811015610d1f578082015181840152602081019050610d04565b5f8484015250505050565b5f601f19601f8301169050919050565b5f610d4482610ce8565b610d4e8185610cf2565b9350610d5e818560208601610d02565b610d6781610d2a565b840191505092915050565b5f6020820190508181035f830152610d8a8184610d3a565b905092915050565b5f80fd5b5f73ffffffffffffffffffffffffffffffffffffffff82169050919050565b5f610dbf82610d96565b9050919050565b610dcf81610db5565b8114610dd9575f80fd5b50565b5f81359050610dea81610dc6565b92915050565b5f819050919050565b610e0281610df0565b8114610e0c575f80fd5b50565b5f81359050610e1d81610df9565b92915050565b5f8060408385031215610e3957610e38610d92565b5b5f610e4685828601610ddc565b9250506020610e5785828601610e0f565b9150509250929050565b5f8115159050919050565b610e7581610e61565b82525050565b5f602082019050610e8e5f830184610e6c565b92915050565b610e9d81610df0565b82525050565b5f602082019050610eb65f830184610e94565b92915050565b5f805f60608486031215610ed357610ed2610d92565b5b5f610ee086828701610ddc565b9350506020610ef186828701610ddc565b9250506040610f0286828701610e0f565b9150509250925092565b5f60ff82169050919050565b610f2181610f0c565b82525050565b5f602082019050610f3a5f830184610f18565b92915050565b5f60208284031215610f5557610f54610d92565b5b5f610f6284828501610e0f565b91505092915050565b5f60208284031215610f8057610f7f610d92565b5b5f610f8d84828501610ddc565b91505092915050565b610f9f81610db5565b82525050565b5f602082019050610fb85f830184610f96565b92915050565b5f8060408385031215610fd457610fd3610d92565b5b5f610fe185828601610ddc565b9250506020610ff285828601610ddc565b9150509250929050565b7f4e487b71000000000000000000000000000000000000000000000000000000005f52602260045260245ffd5b5f600282049050600182168061104057607f821691505b60208210810361105357611052610ffc565b5b50919050565b7f496e73756666696369656e742062616c616e63650000000000000000000000005f82015250565b5f61108d601483610cf2565b915061109882611059565b602082019050919050565b5f6020820190508181035f8301526110ba81611081565b9050919050565b7f416c6c6f77616e636520657863656564656400000000000000000000000000005f82015250565b5f6110f5601283610cf2565b9150611100826110c1565b602082019050919050565b5f6020820190508181035f830152611122816110e9565b9050919050565b7f4e487b71000000000000000000000000000000000000000000000000000000005f52601160045260245ffd5b5f61116082610df0565b915061116b83610df0565b925082820390508181111561118357611182611129565b5b92915050565b5f61119382610df0565b915061119e83610df0565b92508282019050808211156111b6576111b5611129565b5b92915050565b7f4e6f74206f776e657200000000000000000000000000000000000000000000005f82015250565b5f6111f0600983610cf2565b91506111fb826111bc565b602082019050919050565b5f6020820190508181035f83015261121d816111e4565b905091905056fea2646970667358221220a221f4d48124663b87b07aa5c7e9602be5676180b0ba8b8478e16cedada1b40264736f6c63430008170033","linkReferences":{}},"methodIdentifiers":{"allowance(address,address)":"dd62ed3e","approve(address,uint256)":"095ea7b3","balanceOf(address)":"70a08231","burn(uint256)":"42966c68","decimals()":"313ce567","mint(address,uint256)":"40c10f19","name()":"06fdde03","owner()":"8da5cb5b","symbol()":"95d89b41","totalSupply()":"18160ddd","transfer(address,uint256)":"a9059cbb","transferFrom(address,address,uint256)":"23b872dd"},"id":2}