{"abi":[{"type":"constructor","inputs":[],"stateMutability":"nonpayable"},{"type":"function","name":"STATUS_ACTIVE","inputs":[],"outputs":[{"name":"","type":"uint8","internalType":"uint8"}],"stateMutability":"view"},{"type":"function","name":"STATUS_CANCELLED","inputs":[],"outputs":[{"name":"","type":"uint8","internalType":"uint8"}],"stateMutability":"view"},{"type":"function","name":"STATUS_COMPLETED","inputs":[],"outputs":[{"name":"","type":"uint8","internalType":"uint8"}],"stateMutability":"view"},{"type":"function","name":"contractOwner","inputs":[],"outputs":[{"name":"","type":"address","internalType":"address"}],"stateMutability":"view"},{"type":"function","name":"destCancelEscrow","inputs":[{"name":"orderId","type":"string","internalType":"string"},{"name":"owner","type":"address","internalType":"address"}],"outputs":[],"stateMutability":"nonpayable"},{"type":"function","name":"destCreateEscrow","inputs":[{"name":"orderId","type":"string","internalType":"string"},{"name":"owner","type":"address","internalType":"address"},{"name":"hash","type":"bytes32","internalType":"bytes32"},{"name":"taker","type":"address","internalType":"address"},{"name":"token","type":"address","internalType":"address"},{"name":"amount","type":"uint256","internalType":"uint256"},{"name":"timelockDuration","type":"uint256","internalType":"uint256"}],"outputs":[],"stateMutability":"nonpayable"},{"type":"function","name":"destEscrowExists","inputs":[{"name":"orderId","type":"string","internalType":"string"},{"name":"owner","type":"address","internalType":"address"}],"outputs":[{"name":"","type":"bool","internalType":"bool"}],"stateMutability":"view"},{"type":"function","name":"destGetEscrow","inputs":[{"name":"orderId","type":"string","internalType":"string"},{"name":"owner","type":"address","internalType":"address"}],"outputs":[{"name":"","type":"string","internalType":"string"},{"name":"","type":"bytes32","internalType":"bytes32"},{"name":"","type":"address","internalType":"address"},{"name":"","type":"address","internalType":"address"},{"name":"","type":"address","internalType":"address"},{"name":"","type":"uint256","internalType":"uint256"},{"name":"","type":"uint256","internalType":"uint256"},{"name":"","type":"uint8","internalType":"uint8"},{"name":"","type":"uint256","internalType":"uint256"},{"name":"","type":"uint256","internalType":"uint256"}],"stateMutability":"view"},{"type":"function","name":"destIsEscrowActive","inputs":[{"name":"orderId","type":"string","internalType":"string"},{"name":"owner","type":"address","internalType":"address"}],"outputs":[{"name":"","type":"bool","internalType":"bool"}],"stateMutability":"view"},{"type":"function","name":"destIsTimelockExpired","inputs":[{"name":"orderId","type":"string","internalType":"string"},{"name":"owner","type":"address","internalType":"address"}],"outputs":[{"name":"","type":"bool","internalType":"bool"}],"stateMutability":"view"},{"type":"function","name":"destRevealSecret","inputs":[{"name":"orderId","type":"string","internalType":"string"},{"name":"owner","type":"address","internalType":"address"},{"name":"secret","type":"bytes","internalType":"bytes"}],"outputs":[],"stateMutability":"nonpayable"},{"type":"event","name":"EscrowCancelled","inputs":[{"name":"orderId","type":"string","indexed":false,"internalType":"string"},{"name":"owner","type":"address","indexed":true,"internalType":"address"},{"name":"token","type":"address","indexed":false,"internalType":"address"},{"name":"amount","type":"uint256","indexed":false,"internalType":"uint256"}],"anonymous":false},{"type":"event","name":"EscrowCompleted","inputs":[{"name":"orderId","type":"string","indexed":false,"internalType":"string"},{"name":"owner","type":"address","indexed":true,"internalType":"address"},{"name":"taker","type":"address","indexed":true,"internalType":"address"},{"name":"token","type":"address","indexed":false,"internalType":"address"},{"name":"amount","type":"uint256","indexed":false,"internalType":"uint256"},{"name":"secret","type":"bytes","indexed":false,"internalType":"bytes"}],"anonymous":false},{"type":"event","name":"EscrowCreated","inputs":[{"name":"orderId","type":"string","indexed":false,"internalType":"string"},{"name":"owner","type":"address","indexed":true,"internalType":"address"},{"name":"taker","type":"address","indexed":true,"internalType":"address"},{"name":"token","type":"address","indexed":false,"internalType":"address"},{"name":"amount","type":"uint256","indexed":false,"internalType":"uint256"},{"name":"timelock","type":"uint256","indexed":false,"internalType":"uint256"}],"anonymous":false},{"type":"error","name":"EscrowAlreadyExists","inputs":[]},{"type":"error","name":"EscrowNotActive","inputs":[]},{"type":"error","name":"EscrowNotFound","inputs":[]},{"type":"error","name":"HashMismatch","inputs":[]},{"type":"error","name":"InvalidAmount","inputs":[]},{"type":"error","name":"NotAuthorized","inputs":[]},{"type":"error","name":"TimelockNotActive","inputs":[]},{"type":"error","name":"TimelockNotExpired","inputs":[]}],"bytecode":{"object":"0x608060405234801561000f575f80fd5b503360015f6101000a81548173ffffffffffffffffffffffffffffffffffffffff021916908373ffffffffffffffffffffffffffffffffffffffff160217905550611e3d8061005d5f395ff3fe608060405234801561000f575f80fd5b50600436106100a7575f3560e01c80636bded60d1161006f5780636bded60d1461014f578063724f27ee146101885780639f93b1aa146101a6578063a2925bdb146101c2578063ce606ee0146101f2578063ec44f68414610210576100a7565b80630e11583b146100ab5780633b278a6e146100db5780634389cc22146100f75780635a4e5a1514610115578063615b3a6014610133575b5f80fd5b6100c560048036038101906100c0919061138f565b610240565b6040516100d29190611403565b60405180910390f35b6100f560048036038101906100f09190611482565b6102fa565b005b6100ff6106be565b60405161010c9190611556565b60405180910390f35b61011d6106c3565b60405161012a9190611556565b60405180910390f35b61014d6004803603810190610148919061160d565b6106c8565b005b6101696004803603810190610164919061138f565b610b11565b60405161017f9a9998979695949392919061173c565b60405180910390f35b610190610d0c565b60405161019d9190611556565b60405180910390f35b6101c060048036038101906101bb919061138f565b610d11565b005b6101dc60048036038101906101d7919061138f565b6110d8565b6040516101e99190611403565b60405180910390f35b6101fa611151565b60405161020791906117dd565b60405180910390f35b61022a6004803603810190610225919061138f565b611176565b6040516102379190611403565b60405180910390f35b5f8061024c84846111b6565b90505f805f8381526020019081526020015f2090505f73ffffffffffffffffffffffffffffffffffffffff16816002015f9054906101000a900473ffffffffffffffffffffffffffffffffffffffff1673ffffffffffffffffffffffffffffffffffffffff16036102e9576040517ff1d80ab100000000000000000000000000000000000000000000000000000000815260040160405180910390fd5b806006015442119250505092915050565b5f8203610333576040517f2c5211c600000000000000000000000000000000000000000000000000000000815260040160405180910390fd5b5f61033e88886111b6565b9050600160ff165f808381526020019081526020015f206007015f9054906101000a900460ff1660ff160361039f576040517fed77877900000000000000000000000000000000000000000000000000000000815260040160405180910390fd5b5f82426103ac9190611823565b90505f8573ffffffffffffffffffffffffffffffffffffffff166323b872dd8a30886040518463ffffffff1660e01b81526004016103ec93929190611856565b6020604051808303815f875af1158015610408573d5f803e3d5ffd5b505050506040513d601f19601f8201168201806040525081019061042c91906118b5565b90508061046e576040517f08c379a00000000000000000000000000000000000000000000000000000000081526004016104659061192a565b60405180910390fd5b6040518061014001604052808b81526020018981526020018a73ffffffffffffffffffffffffffffffffffffffff1681526020018873ffffffffffffffffffffffffffffffffffffffff1681526020018773ffffffffffffffffffffffffffffffffffffffff168152602001868152602001838152602001600160ff168152602001428152602001868152505f808581526020019081526020015f205f820151815f01908161051d9190611b42565b50602082015181600101556040820151816002015f6101000a81548173ffffffffffffffffffffffffffffffffffffffff021916908373ffffffffffffffffffffffffffffffffffffffff1602179055506060820151816003015f6101000a81548173ffffffffffffffffffffffffffffffffffffffff021916908373ffffffffffffffffffffffffffffffffffffffff1602179055506080820151816004015f6101000a81548173ffffffffffffffffffffffffffffffffffffffff021916908373ffffffffffffffffffffffffffffffffffffffff16021790555060a0820151816005015560c0820151816006015560e0820151816007015f6101000a81548160ff021916908360ff160217905550610100820151816008015561012082015181600901559050508673ffffffffffffffffffffffffffffffffffffffff168973ffffffffffffffffffffffffffffffffffffffff167fcd7145f41737d142f81dbaa3e21939a69a87f479d5cddd6021b86e1250b1ac3f8c8989876040516106aa9493929190611c11565b60405180910390a350505050505050505050565b600181565b600381565b5f6106d384846111b6565b90505f805f8381526020019081526020015f209050600160ff16816007015f9054906101000a900460ff1660ff1614610738576040517f692bfa7f00000000000000000000000000000000000000000000000000000000815260040160405180910390fd5b5f73ffffffffffffffffffffffffffffffffffffffff16816002015f9054906101000a900473ffffffffffffffffffffffffffffffffffffffff1673ffffffffffffffffffffffffffffffffffffffff16036107c0576040517ff1d80ab100000000000000000000000000000000000000000000000000000000815260040160405180910390fd5b806003015f9054906101000a900473ffffffffffffffffffffffffffffffffffffffff1673ffffffffffffffffffffffffffffffffffffffff163373ffffffffffffffffffffffffffffffffffffffff161415801561086c575060015f9054906101000a900473ffffffffffffffffffffffffffffffffffffffff1673ffffffffffffffffffffffffffffffffffffffff163373ffffffffffffffffffffffffffffffffffffffff1614155b156108a3576040517fea8e4eb500000000000000000000000000000000000000000000000000000000815260040160405180910390fd5b80600601544211156108e1576040517f06e5f7c400000000000000000000000000000000000000000000000000000000815260040160405180910390fd5b8060010154838051906020012014610925576040517f3f4d605300000000000000000000000000000000000000000000000000000000815260040160405180910390fd5b5f816005015490506002826007015f6101000a81548160ff021916908360ff1602179055505f82600901819055505f826004015f9054906101000a900473ffffffffffffffffffffffffffffffffffffffff1673ffffffffffffffffffffffffffffffffffffffff1663a9059cbb846003015f9054906101000a900473ffffffffffffffffffffffffffffffffffffffff16846040518363ffffffff1660e01b81526004016109d5929190611c5b565b6020604051808303815f875af11580156109f1573d5f803e3d5ffd5b505050506040513d601f19601f82011682018060405250810190610a1591906118b5565b905080610a57576040517f08c379a0000000000000000000000000000000000000000000000000000000008152600401610a4e9061192a565b60405180910390fd5b826003015f9054906101000a900473ffffffffffffffffffffffffffffffffffffffff1673ffffffffffffffffffffffffffffffffffffffff168673ffffffffffffffffffffffffffffffffffffffff167f47bf65413172f0131508d29b61c77b5910968e03829b30691b299653c66753c289866004015f9054906101000a900473ffffffffffffffffffffffffffffffffffffffff16868a604051610b009493929190611cd4565b60405180910390a350505050505050565b60605f805f805f805f805f80610b278d8d6111b6565b90505f805f8381526020019081526020015f2090505f73ffffffffffffffffffffffffffffffffffffffff16816002015f9054906101000a900473ffffffffffffffffffffffffffffffffffffffff1673ffffffffffffffffffffffffffffffffffffffff1603610bc4576040517ff1d80ab100000000000000000000000000000000000000000000000000000000815260040160405180910390fd5b805f018160010154826002015f9054906101000a900473ffffffffffffffffffffffffffffffffffffffff16836003015f9054906101000a900473ffffffffffffffffffffffffffffffffffffffff16846004015f9054906101000a900473ffffffffffffffffffffffffffffffffffffffff1685600501548660060154876007015f9054906101000a900460ff1688600801548960090154898054610c6990611975565b80601f0160208091040260200160405190810160405280929190818152602001828054610c9590611975565b8015610ce05780601f10610cb757610100808354040283529160200191610ce0565b820191905f5260205f20905b815481529060010190602001808311610cc357829003601f168201915b505050505099509b509b509b509b509b509b509b509b509b509b5050509295989b9194979a5092959850565b600281565b5f610d1c83836111b6565b90505f805f8381526020019081526020015f209050600160ff16816007015f9054906101000a900460ff1660ff1614610d81576040517f692bfa7f00000000000000000000000000000000000000000000000000000000815260040160405180910390fd5b5f73ffffffffffffffffffffffffffffffffffffffff16816002015f9054906101000a900473ffffffffffffffffffffffffffffffffffffffff1673ffffffffffffffffffffffffffffffffffffffff1603610e09576040517ff1d80ab100000000000000000000000000000000000000000000000000000000815260040160405180910390fd5b806002015f9054906101000a900473ffffffffffffffffffffffffffffffffffffffff1673ffffffffffffffffffffffffffffffffffffffff163373ffffffffffffffffffffffffffffffffffffffff1614158015610eb5575060015f9054906101000a900473ffffffffffffffffffffffffffffffffffffffff1673ffffffffffffffffffffffffffffffffffffffff163373ffffffffffffffffffffffffffffffffffffffff1614155b15610eec576040517fea8e4eb500000000000000000000000000000000000000000000000000000000815260040160405180910390fd5b80600601544211610f29576040517f621e25c300000000000000000000000000000000000000000000000000000000815260040160405180910390fd5b5f816005015490506003826007015f6101000a81548160ff021916908360ff1602179055505f82600901819055505f826004015f9054906101000a900473ffffffffffffffffffffffffffffffffffffffff1673ffffffffffffffffffffffffffffffffffffffff1663a9059cbb846002015f9054906101000a900473ffffffffffffffffffffffffffffffffffffffff16846040518363ffffffff1660e01b8152600401610fd9929190611c5b565b6020604051808303815f875af1158015610ff5573d5f803e3d5ffd5b505050506040513d601f19601f8201168201806040525081019061101991906118b5565b90508061105b576040517f08c379a00000000000000000000000000000000000000000000000000000000081526004016110529061192a565b60405180910390fd5b8473ffffffffffffffffffffffffffffffffffffffff167f767925dd1bb309911aa4ba9741c6d13cb553fc398ad87bb4bab34f41a58f1fe587856004015f9054906101000a900473ffffffffffffffffffffffffffffffffffffffff16856040516110c893929190611d25565b60405180910390a2505050505050565b5f806110e484846111b6565b90505f73ffffffffffffffffffffffffffffffffffffffff165f808381526020019081526020015f206002015f9054906101000a900473ffffffffffffffffffffffffffffffffffffffff1673ffffffffffffffffffffffffffffffffffffffff16141591505092915050565b60015f9054906101000a900473ffffffffffffffffffffffffffffffffffffffff1681565b5f8061118284846111b6565b9050600160ff165f808381526020019081526020015f206007015f9054906101000a900460ff1660ff161491505092915050565b5f82826040516020016111ca929190611de0565b60405160208183030381529060405280519060200120905092915050565b5f604051905090565b5f80fd5b5f80fd5b5f80fd5b5f80fd5b5f601f19601f8301169050919050565b7f4e487b71000000000000000000000000000000000000000000000000000000005f52604160045260245ffd5b61124782611201565b810181811067ffffffffffffffff8211171561126657611265611211565b5b80604052505050565b5f6112786111e8565b9050611284828261123e565b919050565b5f67ffffffffffffffff8211156112a3576112a2611211565b5b6112ac82611201565b9050602081019050919050565b828183375f83830152505050565b5f6112d96112d484611289565b61126f565b9050828152602081018484840111156112f5576112f46111fd565b5b6113008482856112b9565b509392505050565b5f82601f83011261131c5761131b6111f9565b5b813561132c8482602086016112c7565b91505092915050565b5f73ffffffffffffffffffffffffffffffffffffffff82169050919050565b5f61135e82611335565b9050919050565b61136e81611354565b8114611378575f80fd5b50565b5f8135905061138981611365565b92915050565b5f80604083850312156113a5576113a46111f1565b5b5f83013567ffffffffffffffff8111156113c2576113c16111f5565b5b6113ce85828601611308565b92505060206113df8582860161137b565b9150509250929050565b5f8115159050919050565b6113fd816113e9565b82525050565b5f6020820190506114165f8301846113f4565b92915050565b5f819050919050565b61142e8161141c565b8114611438575f80fd5b50565b5f8135905061144981611425565b92915050565b5f819050919050565b6114618161144f565b811461146b575f80fd5b50565b5f8135905061147c81611458565b92915050565b5f805f805f805f60e0888a03121561149d5761149c6111f1565b5b5f88013567ffffffffffffffff8111156114ba576114b96111f5565b5b6114c68a828b01611308565b97505060206114d78a828b0161137b565b96505060406114e88a828b0161143b565b95505060606114f98a828b0161137b565b945050608061150a8a828b0161137b565b93505060a061151b8a828b0161146e565b92505060c061152c8a828b0161146e565b91505092959891949750929550565b5f60ff82169050919050565b6115508161153b565b82525050565b5f6020820190506115695f830184611547565b92915050565b5f67ffffffffffffffff82111561158957611588611211565b5b61159282611201565b9050602081019050919050565b5f6115b16115ac8461156f565b61126f565b9050828152602081018484840111156115cd576115cc6111fd565b5b6115d88482856112b9565b509392505050565b5f82601f8301126115f4576115f36111f9565b5b813561160484826020860161159f565b91505092915050565b5f805f60608486031215611624576116236111f1565b5b5f84013567ffffffffffffffff811115611641576116406111f5565b5b61164d86828701611308565b935050602061165e8682870161137b565b925050604084013567ffffffffffffffff81111561167f5761167e6111f5565b5b61168b868287016115e0565b9150509250925092565b5f81519050919050565b5f82825260208201905092915050565b5f5b838110156116cc5780820151818401526020810190506116b1565b5f8484015250505050565b5f6116e182611695565b6116eb818561169f565b93506116fb8185602086016116af565b61170481611201565b840191505092915050565b6117188161141c565b82525050565b61172781611354565b82525050565b6117368161144f565b82525050565b5f610140820190508181035f830152611755818d6116d7565b9050611764602083018c61170f565b611771604083018b61171e565b61177e606083018a61171e565b61178b608083018961171e565b61179860a083018861172d565b6117a560c083018761172d565b6117b260e0830186611547565b6117c061010083018561172d565b6117ce61012083018461172d565b9b9a5050505050505050505050565b5f6020820190506117f05f83018461171e565b92915050565b7f4e487b71000000000000000000000000000000000000000000000000000000005f52601160045260245ffd5b5f61182d8261144f565b91506118388361144f565b92508282019050808211156118505761184f6117f6565b5b92915050565b5f6060820190506118695f83018661171e565b611876602083018561171e565b611883604083018461172d565b949350505050565b611894816113e9565b811461189e575f80fd5b50565b5f815190506118af8161188b565b92915050565b5f602082840312156118ca576118c96111f1565b5b5f6118d7848285016118a1565b91505092915050565b7f546f6b656e207472616e73666572206661696c656400000000000000000000005f82015250565b5f61191460158361169f565b915061191f826118e0565b602082019050919050565b5f6020820190508181035f83015261194181611908565b9050919050565b7f4e487b71000000000000000000000000000000000000000000000000000000005f52602260045260245ffd5b5f600282049050600182168061198c57607f821691505b60208210810361199f5761199e611948565b5b50919050565b5f819050815f5260205f209050919050565b5f6020601f8301049050919050565b5f82821b905092915050565b5f60088302611a017fffffffffffffffffffffffffffffffffffffffffffffffffffffffffffffffff826119c6565b611a0b86836119c6565b95508019841693508086168417925050509392505050565b5f819050919050565b5f611a46611a41611a3c8461144f565b611a23565b61144f565b9050919050565b5f819050919050565b611a5f83611a2c565b611a73611a6b82611a4d565b8484546119d2565b825550505050565b5f90565b611a87611a7b565b611a92818484611a56565b505050565b5b81811015611ab557611aaa5f82611a7f565b600181019050611a98565b5050565b601f821115611afa57611acb816119a5565b611ad4846119b7565b81016020851015611ae3578190505b611af7611aef856119b7565b830182611a97565b50505b505050565b5f82821c905092915050565b5f611b1a5f1984600802611aff565b1980831691505092915050565b5f611b328383611b0b565b9150826002028217905092915050565b611b4b82611695565b67ffffffffffffffff811115611b6457611b63611211565b5b611b6e8254611975565b611b79828285611ab9565b5f60209050601f831160018114611baa575f8415611b98578287015190505b611ba28582611b27565b865550611c09565b601f198416611bb8866119a5565b5f5b82811015611bdf57848901518255600182019150602085019450602081019050611bba565b86831015611bfc5784890151611bf8601f891682611b0b565b8355505b6001600288020188555050505b505050505050565b5f6080820190508181035f830152611c2981876116d7565b9050611c38602083018661171e565b611c45604083018561172d565b611c52606083018461172d565b95945050505050565b5f604082019050611c6e5f83018561171e565b611c7b602083018461172d565b9392505050565b5f81519050919050565b5f82825260208201905092915050565b5f611ca682611c82565b611cb08185611c8c565b9350611cc08185602086016116af565b611cc981611201565b840191505092915050565b5f6080820190508181035f830152611cec81876116d7565b9050611cfb602083018661171e565b611d08604083018561172d565b8181036060830152611d1a8184611c9c565b905095945050505050565b5f6060820190508181035f830152611d3d81866116d7565b9050611d4c602083018561171e565b611d59604083018461172d565b949350505050565b5f81905092915050565b5f611d7582611695565b611d7f8185611d61565b9350611d8f8185602086016116af565b80840191505092915050565b5f8160601b9050919050565b5f611db182611d9b565b9050919050565b5f611dc282611da7565b9050919050565b611dda611dd582611354565b611db8565b82525050565b5f611deb8285611d6b565b9150611df78284611dc9565b601482019150819050939250505056fea264697066735822122059d71e2de1f57077f972f0868b2c64ddcf44d7a9771b0091e48a52e4ade0837a64736f6c63430008170033","linkReferences":{}},"methodIdentifiers":{"STATUS_ACTIVE()":"4389cc22","STATUS_CANCELLED()":"5a4e5a15","STATUS_COMPLETED()":"724f27ee","contractOwner()":"ce606ee0","destCancelEscrow(string,address)":"9f93b1aa","destCreateEscrow(string,address,bytes32,address,address,uint256,uint256)":"3b278a6e","destEscrowExists(string,address)":"a2925bdb","destGetEscrow(string,address)":"6bded60d","destIsEscrowActive(string,address)":"ec44f684","destIsTimelockExpired(string,address)":"0e11583b","destRevealSecret(string,address,bytes)":"615b3a60"},"id":1}