{"abi":[{"type":"constructor","inputs":[],"stateMutability":"nonpayable"},{"type":"function","name":"STATUS_ACTIVE","inputs":[],"outputs":[{"name":"","type":"uint8","internalType":"uint8"}],"stateMutability":"view"},{"type":"function","name":"STATUS_CANCELLED","inputs":[],"outputs":[{"name":"","type":"uint8","internalType":"uint8"}],"stateMutability":"view"},{"type":"function","name":"STATUS_COMPLETED","inputs":[],"outputs":[{"name":"","type":"uint8","internalType":"uint8"}],"stateMutability":"view"},{"type":"function","name":"cancelEscrow","inputs":[{"name":"orderId","type":"string","internalType":"string"},{"name":"owner","type":"address","internalType":"address"}],"outputs":[],"stateMutability":"nonpayable"},{"type":"function","name":"contractOwner","inputs":[],"outputs":[{"name":"","type":"address","internalType":"address"}],"stateMutability":"view"},{"type":"function","name":"createEscrow","inputs":[{"name":"orderId","type":"string","internalType":"string"},{"name":"owner","type":"address","internalType":"address"},{"name":"hash","type":"bytes32","internalType":"bytes32"},{"name":"taker","type":"address","internalType":"address"},{"name":"token","type":"address","internalType":"address"},{"name":"amount","type":"uint256","internalType":"uint256"},{"name":"timelockDuration","type":"uint256","internalType":"uint256"}],"outputs":[],"stateMutability":"nonpayable"},{"type":"function","name":"escrowExists","inputs":[{"name":"orderId","type":"string","internalType":"string"},{"name":"owner","type":"address","internalType":"address"}],"outputs":[{"name":"","type":"bool","internalType":"bool"}],"stateMutability":"view"},{"type":"function","name":"getEscrow","inputs":[{"name":"orderId","type":"string","internalType":"string"},{"name":"owner","type":"address","internalType":"address"}],"outputs":[{"name":"","type":"string","internalType":"string"},{"name":"","type":"bytes32","internalType":"bytes32"},{"name":"","type":"address","internalType":"address"},{"name":"","type":"address","internalType":"address"},{"name":"","type":"address","internalType":"address"},{"name":"","type":"uint256","internalType":"uint256"},{"name":"","type":"uint256","internalType":"uint256"},{"name":"","type":"uint8","internalType":"uint8"},{"name":"","type":"uint256","internalType":"uint256"},{"name":"","type":"uint256","internalType":"uint256"}],"stateMutability":"view"},{"type":"function","name":"isEscrowActive","inputs":[{"name":"orderId","type":"string","internalType":"string"},{"name":"owner","type":"address","internalType":"address"}],"outputs":[{"name":"","type":"bool","internalType":"bool"}],"stateMutability":"view"},{"type":"function","name":"isTimelockExpired","inputs":[{"name":"orderId","type":"string","internalType":"string"},{"name":"owner","type":"address","internalType":"address"}],"outputs":[{"name":"","type":"bool","internalType":"bool"}],"stateMutability":"view"},{"type":"function","name":"revealSecret","inputs":[{"name":"orderId","type":"string","internalType":"string"},{"name":"owner","type":"address","internalType":"address"},{"name":"secret","type":"bytes","internalType":"bytes"}],"outputs":[],"stateMutability":"nonpayable"},{"type":"event","name":"EscrowCancelled","inputs":[{"name":"orderId","type":"string","indexed":false,"internalType":"string"},{"name":"owner","type":"address","indexed":true,"internalType":"address"},{"name":"token","type":"address","indexed":false,"internalType":"address"},{"name":"amount","type":"uint256","indexed":false,"internalType":"uint256"}],"anonymous":false},{"type":"event","name":"EscrowCompleted","inputs":[{"name":"orderId","type":"string","indexed":false,"internalType":"string"},{"name":"owner","type":"address","indexed":true,"internalType":"address"},{"name":"taker","type":"address","indexed":true,"internalType":"address"},{"name":"token","type":"address","indexed":false,"internalType":"address"},{"name":"amount","type":"uint256","indexed":false,"internalType":"uint256"},{"name":"secret","type":"bytes","indexed":false,"internalType":"bytes"}],"anonymous":false},{"type":"event","name":"EscrowCreated","inputs":[{"name":"orderId","type":"string","indexed":false,"internalType":"string"},{"name":"owner","type":"address","indexed":true,"internalType":"address"},{"name":"taker","type":"address","indexed":true,"internalType":"address"},{"name":"token","type":"address","indexed":false,"internalType":"address"},{"name":"amount","type":"uint256","indexed":false,"internalType":"uint256"},{"name":"timelock","type":"uint256","indexed":false,"internalType":"uint256"}],"anonymous":false},{"type":"error","name":"EscrowAlreadyExists","inputs":[]},{"type":"error","name":"EscrowNotActive","inputs":[]},{"type":"error","name":"EscrowNotFound","inputs":[]},{"type":"error","name":"HashMismatch","inputs":[]},{"type":"error","name":"InvalidAmount","inputs":[]},{"type":"error","name":"NotAuthorized","inputs":[]},{"type":"error","name":"TimelockNotActive","inputs":[]},{"type":"error","name":"TimelockNotExpired","inputs":[]}],"bytecode":{"object":"0x608060405234801561000f575f80fd5b503360015f6101000a81548173ffffffffffffffffffffffffffffffffffffffff021916908373ffffffffffffffffffffffffffffffffffffffff160217905550611e3d8061005d5f395ff3fe608060405234801561000f575f80fd5b50600436106100a7575f3560e01c806366cf2b471161006f57806366cf2b471461016c57806371ed4abf14610188578063724f27ee146101b857806385c7cab6146101d6578063ce606ee0146101f2578063f3cd8da014610210576100a7565b806330ad4058146100ab5780633c84ec49146100db5780634389cc22146101145780635a4e5a15146101325780636469e37814610150575b5f80fd5b6100c560048036038101906100c0919061138f565b610240565b6040516100d29190611403565b60405180910390f35b6100f560048036038101906100f0919061138f565b6102b9565b60405161010b9a999897969594939291906114f0565b60405180910390f35b61011c6104b4565b6040516101299190611591565b60405180910390f35b61013a6104b9565b6040516101479190611591565b60405180910390f35b61016a600480360381019061016591906115fe565b6104be565b005b61018660048036038101906101819190611755565b610882565b005b6101a2600480360381019061019d919061138f565b610ccb565b6040516101af9190611403565b60405180910390f35b6101c0610d0b565b6040516101cd9190611591565b60405180910390f35b6101f060048036038101906101eb919061138f565b610d10565b005b6101fa6110d7565b60405161020791906117dd565b60405180910390f35b61022a6004803603810190610225919061138f565b6110fc565b6040516102379190611403565b60405180910390f35b5f8061024c84846111b6565b90505f73ffffffffffffffffffffffffffffffffffffffff165f808381526020019081526020015f206002015f9054906101000a900473ffffffffffffffffffffffffffffffffffffffff1673ffffffffffffffffffffffffffffffffffffffff16141591505092915050565b60605f805f805f805f805f806102cf8d8d6111b6565b90505f805f8381526020019081526020015f2090505f73ffffffffffffffffffffffffffffffffffffffff16816002015f9054906101000a900473ffffffffffffffffffffffffffffffffffffffff1673ffffffffffffffffffffffffffffffffffffffff160361036c576040517ff1d80ab100000000000000000000000000000000000000000000000000000000815260040160405180910390fd5b805f018160010154826002015f9054906101000a900473ffffffffffffffffffffffffffffffffffffffff16836003015f9054906101000a900473ffffffffffffffffffffffffffffffffffffffff16846004015f9054906101000a900473ffffffffffffffffffffffffffffffffffffffff1685600501548660060154876007015f9054906101000a900460ff168860080154896009015489805461041190611823565b80601f016020809104026020016040519081016040528092919081815260200182805461043d90611823565b80156104885780601f1061045f57610100808354040283529160200191610488565b820191905f5260205f20905b81548152906001019060200180831161046b57829003601f168201915b505050505099509b509b509b509b509b509b509b509b509b509b5050509295989b9194979a5092959850565b600181565b600381565b5f82036104f7576040517f2c5211c600000000000000000000000000000000000000000000000000000000815260040160405180910390fd5b5f61050288886111b6565b9050600160ff165f808381526020019081526020015f206007015f9054906101000a900460ff1660ff1603610563576040517fed77877900000000000000000000000000000000000000000000000000000000815260040160405180910390fd5b5f82426105709190611880565b90505f8573ffffffffffffffffffffffffffffffffffffffff166323b872dd8a30886040518463ffffffff1660e01b81526004016105b0939291906118b3565b6020604051808303815f875af11580156105cc573d5f803e3d5ffd5b505050506040513d601f19601f820116820180604052508101906105f09190611912565b905080610632576040517f08c379a000000000000000000000000000000000000000000000000000000000815260040161062990611987565b60405180910390fd5b6040518061014001604052808b81526020018981526020018a73ffffffffffffffffffffffffffffffffffffffff1681526020018873ffffffffffffffffffffffffffffffffffffffff1681526020018773ffffffffffffffffffffffffffffffffffffffff168152602001868152602001838152602001600160ff168152602001428152602001868152505f808581526020019081526020015f205f820151815f0190816106e19190611b42565b50602082015181600101556040820151816002015f6101000a81548173ffffffffffffffffffffffffffffffffffffffff021916908373ffffffffffffffffffffffffffffffffffffffff1602179055506060820151816003015f6101000a81548173ffffffffffffffffffffffffffffffffffffffff021916908373ffffffffffffffffffffffffffffffffffffffff1602179055506080820151816004015f6101000a81548173ffffffffffffffffffffffffffffffffffffffff021916908373ffffffffffffffffffffffffffffffffffffffff16021790555060a0820151816005015560c0820151816006015560e0820151816007015f6101000a81548160ff021916908360ff160217905550610100820151816008015561012082015181600901559050508673ffffffffffffffffffffffffffffffffffffffff168973ffffffffffffffffffffffffffffffffffffffff167fcd7145f41737d142f81dbaa3e21939a69a87f479d5cddd6021b86e1250b1ac3f8c89898760405161086e9493929190611c11565b60405180910390a350505050505050505050565b5f61088d84846111b6565b90505f805f8381526020019081526020015f209050600160ff16816007015f9054906101000a900460ff1660ff16146108f2576040517f692bfa7f00000000000000000000000000000000000000000000000000000000815260040160405180910390fd5b5f73ffffffffffffffffffffffffffffffffffffffff16816002015f9054906101000a900473ffffffffffffffffffffffffffffffffffffffff1673ffffffffffffffffffffffffffffffffffffffff160361097a576040517ff1d80ab100000000000000000000000000000000000000000000000000000000815260040160405180910390fd5b806003015f9054906101000a900473ffffffffffffffffffffffffffffffffffffffff1673ffffffffffffffffffffffffffffffffffffffff163373ffffffffffffffffffffffffffffffffffffffff1614158015610a26575060015f9054906101000a900473ffffffffffffffffffffffffffffffffffffffff1673ffffffffffffffffffffffffffffffffffffffff163373ffffffffffffffffffffffffffffffffffffffff1614155b15610a5d576040517fea8e4eb500000000000000000000000000000000000000000000000000000000815260040160405180910390fd5b8060060154421115610a9b576040517f06e5f7c400000000000000000000000000000000000000000000000000000000815260040160405180910390fd5b8060010154838051906020012014610adf576040517f3f4d605300000000000000000000000000000000000000000000000000000000815260040160405180910390fd5b5f816005015490506002826007015f6101000a81548160ff021916908360ff1602179055505f82600901819055505f826004015f9054906101000a900473ffffffffffffffffffffffffffffffffffffffff1673ffffffffffffffffffffffffffffffffffffffff1663a9059cbb846003015f9054906101000a900473ffffffffffffffffffffffffffffffffffffffff16846040518363ffffffff1660e01b8152600401610b8f929190611c5b565b6020604051808303815f875af1158015610bab573d5f803e3d5ffd5b505050506040513d601f19601f82011682018060405250810190610bcf9190611912565b905080610c11576040517f08c379a0000000000000000000000000000000000000000000000000000000008152600401610c0890611987565b60405180910390fd5b826003015f9054906101000a900473ffffffffffffffffffffffffffffffffffffffff1673ffffffffffffffffffffffffffffffffffffffff168673ffffffffffffffffffffffffffffffffffffffff167f47bf65413172f0131508d29b61c77b5910968e03829b30691b299653c66753c289866004015f9054906101000a900473ffffffffffffffffffffffffffffffffffffffff16868a604051610cba9493929190611cd4565b60405180910390a350505050505050565b5f80610cd784846111b6565b9050600160ff165f808381526020019081526020015f206007015f9054906101000a900460ff1660ff161491505092915050565b600281565b5f610d1b83836111b6565b90505f805f8381526020019081526020015f209050600160ff16816007015f9054906101000a900460ff1660ff1614610d80576040517f692bfa7f00000000000000000000000000000000000000000000000000000000815260040160405180910390fd5b5f73ffffffffffffffffffffffffffffffffffffffff16816002015f9054906101000a900473ffffffffffffffffffffffffffffffffffffffff1673ffffffffffffffffffffffffffffffffffffffff1603610e08576040517ff1d80ab100000000000000000000000000000000000000000000000000000000815260040160405180910390fd5b806002015f9054906101000a900473ffffffffffffffffffffffffffffffffffffffff1673ffffffffffffffffffffffffffffffffffffffff163373ffffffffffffffffffffffffffffffffffffffff1614158015610eb4575060015f9054906101000a900473ffffffffffffffffffffffffffffffffffffffff1673ffffffffffffffffffffffffffffffffffffffff163373ffffffffffffffffffffffffffffffffffffffff1614155b15610eeb576040517fea8e4eb500000000000000000000000000000000000000000000000000000000815260040160405180910390fd5b80600601544211610f28576040517f621e25c300000000000000000000000000000000000000000000000000000000815260040160405180910390fd5b5f816005015490506003826007015f6101000a81548160ff021916908360ff1602179055505f82600901819055505f826004015f9054906101000a900473ffffffffffffffffffffffffffffffffffffffff1673ffffffffffffffffffffffffffffffffffffffff1663a9059cbb846002015f9054906101000a900473ffffffffffffffffffffffffffffffffffffffff16846040518363ffffffff1660e01b8152600401610fd8929190611c5b565b6020604051808303815f875af1158015610ff4573d5f803e3d5ffd5b505050506040513d601f19601f820116820180604052508101906110189190611912565b90508061105a576040517f08c379a000000000000000000000000000000000000000000000000000000000815260040161105190611987565b60405180910390fd5b8473ffffffffffffffffffffffffffffffffffffffff167f767925dd1bb309911aa4ba9741c6d13cb553fc398ad87bb4bab34f41a58f1fe587856004015f9054906101000a900473ffffffffffffffffffffffffffffffffffffffff16856040516110c793929190611d25565b60405180910390a2505050505050565b60015f9054906101000a900473ffffffffffffffffffffffffffffffffffffffff1681565b5f8061110884846111b6565b90505f805f8381526020019081526020015f2090505f73ffffffffffffffffffffffffffffffffffffffff16816002015f9054906101000a900473ffffffffffffffffffffffffffffffffffffffff1673ffffffffffffffffffffffffffffffffffffffff16036111a5576040517ff1d80ab100000000000000000000000000000000000000000000000000000000815260040160405180910390fd5b806006015442119250505092915050565b5f82826040516020016111ca929190611de0565b60405160208183030381529060405280519060200120905092915050565b5f604051905090565b5f80fd5b5f80fd5b5f80fd5b5f80fd5b5f601f19601f8301169050919050565b7f4e487b71000000000000000000000000000000000000000000000000000000005f52604160045260245ffd5b61124782611201565b810181811067ffffffffffffffff8211171561126657611265611211565b5b80604052505050565b5f6112786111e8565b9050611284828261123e565b919050565b5f67ffffffffffffffff8211156112a3576112a2611211565b5b6112ac82611201565b9050602081019050919050565b828183375f83830152505050565b5f6112d96112d484611289565b61126f565b9050828152602081018484840111156112f5576112f46111fd565b5b6113008482856112b9565b509392505050565b5f82601f83011261131c5761131b6111f9565b5b813561132c8482602086016112c7565b91505092915050565b5f73ffffffffffffffffffffffffffffffffffffffff82169050919050565b5f61135e82611335565b9050919050565b61136e81611354565b8114611378575f80fd5b50565b5f8135905061138981611365565b92915050565b5f80604083850312156113a5576113a46111f1565b5b5f83013567ffffffffffffffff8111156113c2576113c16111f5565b5b6113ce85828601611308565b92505060206113df8582860161137b565b9150509250929050565b5f8115159050919050565b6113fd816113e9565b82525050565b5f6020820190506114165f8301846113f4565b92915050565b5f81519050919050565b5f82825260208201905092915050565b5f5b83811015611453578082015181840152602081019050611438565b5f8484015250505050565b5f6114688261141c565b6114728185611426565b9350611482818560208601611436565b61148b81611201565b840191505092915050565b5f819050919050565b6114a881611496565b82525050565b6114b781611354565b82525050565b5f819050919050565b6114cf816114bd565b82525050565b5f60ff82169050919050565b6114ea816114d5565b82525050565b5f610140820190508181035f830152611509818d61145e565b9050611518602083018c61149f565b611525604083018b6114ae565b611532606083018a6114ae565b61153f60808301896114ae565b61154c60a08301886114c6565b61155960c08301876114c6565b61156660e08301866114e1565b6115746101008301856114c6565b6115826101208301846114c6565b9b9a5050505050505050505050565b5f6020820190506115a45f8301846114e1565b92915050565b6115b381611496565b81146115bd575f80fd5b50565b5f813590506115ce816115aa565b92915050565b6115dd816114bd565b81146115e7575f80fd5b50565b5f813590506115f8816115d4565b92915050565b5f805f805f805f60e0888a031215611619576116186111f1565b5b5f88013567ffffffffffffffff811115611636576116356111f5565b5b6116428a828b01611308565b97505060206116538a828b0161137b565b96505060406116648a828b016115c0565b95505060606116758a828b0161137b565b94505060806116868a828b0161137b565b93505060a06116978a828b016115ea565b92505060c06116a88a828b016115ea565b91505092959891949750929550565b5f67ffffffffffffffff8211156116d1576116d0611211565b5b6116da82611201565b9050602081019050919050565b5f6116f96116f4846116b7565b61126f565b905082815260208101848484011115611715576117146111fd565b5b6117208482856112b9565b509392505050565b5f82601f83011261173c5761173b6111f9565b5b813561174c8482602086016116e7565b91505092915050565b5f805f6060848603121561176c5761176b6111f1565b5b5f84013567ffffffffffffffff811115611789576117886111f5565b5b61179586828701611308565b93505060206117a68682870161137b565b925050604084013567ffffffffffffffff8111156117c7576117c66111f5565b5b6117d386828701611728565b9150509250925092565b5f6020820190506117f05f8301846114ae565b92915050565b7f4e487b71000000000000000000000000000000000000000000000000000000005f52602260045260245ffd5b5f600282049050600182168061183a57607f821691505b60208210810361184d5761184c6117f6565b5b50919050565b7f4e487b71000000000000000000000000000000000000000000000000000000005f52601160045260245ffd5b5f61188a826114bd565b9150611895836114bd565b92508282019050808211156118ad576118ac611853565b5b92915050565b5f6060820190506118c65f8301866114ae565b6118d360208301856114ae565b6118e060408301846114c6565b949350505050565b6118f1816113e9565b81146118fb575f80fd5b50565b5f8151905061190c816118e8565b92915050565b5f60208284031215611927576119266111f1565b5b5f611934848285016118fe565b91505092915050565b7f546f6b656e207472616e73666572206661696c656400000000000000000000005f82015250565b5f611971601583611426565b915061197c8261193d565b602082019050919050565b5f6020820190508181035f83015261199e81611965565b9050919050565b5f819050815f5260205f209050919050565b5f6020601f8301049050919050565b5f82821b905092915050565b5f60088302611a017fffffffffffffffffffffffffffffffffffffffffffffffffffffffffffffffff826119c6565b611a0b86836119c6565b95508019841693508086168417925050509392505050565b5f819050919050565b5f611a46611a41611a3c846114bd565b611a23565b6114bd565b9050919050565b5f819050919050565b611a5f83611a2c565b611a73611a6b82611a4d565b8484546119d2565b825550505050565b5f90565b611a87611a7b565b611a92818484611a56565b505050565b5b81811015611ab557611aaa5f82611a7f565b600181019050611a98565b5050565b601f821115611afa57611acb816119a5565b611ad4846119b7565b81016020851015611ae3578190505b611af7611aef856119b7565b830182611a97565b50505b505050565b5f82821c905092915050565b5f611b1a5f1984600802611aff565b1980831691505092915050565b5f611b328383611b0b565b9150826002028217905092915050565b611b4b8261141c565b67ffffffffffffffff811115611b6457611b63611211565b5b611b6e8254611823565b611b79828285611ab9565b5f60209050601f831160018114611baa575f8415611b98578287015190505b611ba28582611b27565b865550611c09565b601f198416611bb8866119a5565b5f5b82811015611bdf57848901518255600182019150602085019450602081019050611bba565b86831015611bfc5784890151611bf8601f891682611b0b565b8355505b6001600288020188555050505b505050505050565b5f6080820190508181035f830152611c29818761145e565b9050611c3860208301866114ae565b611c4560408301856114c6565b611c5260608301846114c6565b95945050505050565b5f604082019050611c6e5f8301856114ae565b611c7b60208301846114c6565b9392505050565b5f81519050919050565b5f82825260208201905092915050565b5f611ca682611c82565b611cb08185611c8c565b9350611cc0818560208601611436565b611cc981611201565b840191505092915050565b5f6080820190508181035f830152611cec818761145e565b9050611cfb60208301866114ae565b611d0860408301856114c6565b8181036060830152611d1a8184611c9c565b905095945050505050565b5f6060820190508181035f830152611d3d818661145e565b9050611d4c60208301856114ae565b611d5960408301846114c6565b949350505050565b5f81905092915050565b5f611d758261141c565b611d7f8185611d61565b9350611d8f818560208601611436565b80840191505092915050565b5f8160601b9050919050565b5f611db182611d9b565b9050919050565b5f611dc282611da7565b9050919050565b611dda611dd582611354565b611db8565b82525050565b5f611deb8285611d6b565b9150611df78284611dc9565b601482019150819050939250505056fea26469706673582212207812943252acdcd5efcbb02c5c1ce0c30bf39d1d4312f90f592ce15adb29065b64736f6c63430008170033","linkReferences":{}},"methodIdentifiers":{"STATUS_ACTIVE()":"4389cc22","STATUS_CANCELLED()":"5a4e5a15","STATUS_COMPLETED()":"724f27ee","cancelEscrow(string,address)":"85c7cab6","contractOwner()":"ce606ee0","createEscrow(string,address,bytes32,address,address,uint256,uint256)":"6469e378","escrowExists(string,address)":"30ad4058","getEscrow(string,address)":"3c84ec49","isEscrowActive(string,address)":"71ed4abf","isTimelockExpired(string,address)":"f3cd8da0","revealSecret(string,address,bytes)":"66cf2b47"},"id":0}